:10000000F8FF022099010000150F0000CD0E00003E
:10001000CD0E0000CD0E0000CD0E0000CD0E000074
:10002000CD0E0000CD0E0000CD0E0000150F00001B
:10003000150F0000CD0E0000AD240000B12400001B
:10004000150F0000150F0000150F0000150F000020
:10005000150F0000150F0000150F0000150F000010
:10006000150F0000150F0000150F0000150F000000
:10007000150F0000150F0000150F0000150F0000F0
:10008000150F0000150F0000150F0000150F0000E0
:10009000150F0000150F0000150F0000150F0000D0
:1000A000150F0000150F0000150F0000150F0000C0
:1000B000150F0000150F0000150F0000150F0000B0
:1000C000150F0000150F0000150F0000150F0000A0
:1000D000150F0000150F0000150F0000150F000090
:1000E000150F0000150F0000150F0000150F000080
:1000F000150F0000150F0000150F0000150F000070
:10010000DD0A0000F10A0000050B0000190B0000D9
:10011000150F000061140000150F0000150F0000FE
:10012000150F0000150F0000150F0000150F00003F
:10013000150F0000150F0000150F0000150F00002F
:10014000150F0000150F0000150F0000150F00001F
:10015000150F0000150F0000150F0000150F00000F
:10016000150F0000150F0000150F000009360000E4
:10017000153600001936000025360000293600002B
:100180002D360000150F0000150F0000150F0000A0
:10019000150F0000150F0000584B4CF2205210B5FF
:1001A0001A804DF628121A8000BF00BF00F0B6FE7C
:1001B000534B4FF030621A60524A9A60524ADA60EA
:1001C000524B4FF470021A60514A136813F4807353
:1001D00004D150490B604FF4A85313604E4B1A786A
:1001E000110703D51A7842F008021A704B4B4C499C
:1001F0002A221A704B4A4C4B8B4204D252F8040FFD
:1002000043F8040BF8E7494B494900228B4202D2DC
:1002100043F8042BFAE74749474A002352F82300E2
:1002200041F823000133662BF8D1444B444A802126
:1002300003F8011B9342FBD1424B3E4A1A60424BEA
:100240008A221A70A3F5805324225A70A0221A70B1
:100250009A799207FCD59A79D406FCD43B4A9379D3
:1002600003F00C03082B394BF9D103221A714622F3
:100270005A719A799006FCD5344A9179334B4906E4
:10028000FBD5334A4FF08271116009215160202261
:100290001A709A7902F00C020C2AFAD12D4B2E4AD0
:1002A0001A602E4B2E4A1A6000225A60072243F829
:1002B000042C2C4AC3F80C2D62B600F063FF154BDA
:1002C0001B68DA0705D5284800F0CEFE274B284AE0
:1002D0001A60284B1B785B0609D5244C244B2268F6
:1002E0009A4204D1204800F0BFFE0023236006F0AC
:1002F000CFFF00F019FE00F047FDFEE70E2005409D
:1003000030800440823F04000100002B88ED00E0B3
:1003100010D0034014D0034002D0074000E0074053
:10032000CC10FF1F04830000F806FF1FCC10FF1F36
:10033000F815FF1F0002FF1F0000000000E400E0AE
:1003400056E400E008ED00E00050064000400640A2
:100350004480044004800440C010050014E000E024
:10036000BFD401000000202024B4755F1CE00340CE
:10037000A5C3945A00F00740FFFFFFFFFFFFFFFFF8
:10038000FFFFFFFFFFFFFFFFFFFFFFFFFFFFFFFF7D
:10039000FFFFFFFFFFFFFFFFFFFFFFFFFFFFFFFF6D
:1003A000FFFFFFFFFFFFFFFFFFFFFFFFFFFFFFFF5D
:1003B000FFFFFFFFFFFFFFFFFFFFFFFFFFFFFFFF4D
:1003C000FFFFFFFFFFFFFFFFFFFFFFFFFFFFFFFF3D
:1003D000FFFFFFFFFFFFFFFFFFFFFFFFFFFFFFFF2D
:1003E000FFFFFFFFFFFFFFFFFFFFFFFFFFFFFFFF1D
:1003F000FFFFFFFFFFFFFFFFFFFFFFFFFFFFFFFF0D
:10040000FFFFFFFFFFFFFFFFFFFFFFFFDEF9FFFF23
:1004100010B5054C237833B9044B13B10448AFF33E
:1004200000800123237010BDCC10FF1F00000000CE
:1004300000830000084B10B51BB108490848AFF312
:1004400000800848036803B910BD074B002BFBD0A0
:10045000BDE81040184700BF00000000D010FF1F8B
:1004600000830000CC10FF1F00000000F8B50F4C07
:100470000F4D104F104E01E000F036FE237864203F
:10048000002BF9D02B78DB07F6D53B6832689B1A36
:100490000E2BF1D901210D2000F0FEFD00210D20D1
:1004A00000F0F4FDBDE8F84000F02CB9A013FF1FE8
:1004B000B813FF1FBC12FF1FF015FF1F10B5C6B009
:1004C00018A800F0DDF82FA85C22002107F066FADA
:1004D0009DF8604006230E2C8DF8BC3026D0242CCD
:1004E0002ED0252C08BF012111D0262C0ED0052C92
:1004F00004D02FA800F098F846B010BD154B00228C
:100500001A602FA800F090F846B010BD00210D2011
:1005100000F0BCFD5C2200212FA807F03FFA2FA8B5
:100520008DF8BC4000F080F846B010BD18A96846B0
:1005300000F018F969465C222FA800F02DFCD8E7DE
:1005400018A9684600F0BAF969465C222FA800F0A5
:1005500023FCCEE78C12FF1F10B5044600F09CFA76
:10056000204610BD2DE9F0412A4B1B7884B04BB1D9
:10057000294C04F1D00521462848103402F0E4FE4D
:10058000A542F8D1254802F0A1FD80B3DFF89480A0
:1005900098F8003073BB224D6E462F4631461F48F7
:1005A00002F0CAFDA0B10099002301E00D2BF5D0A7
:1005B0001C0101332A598A42F8D196E80F003C44C5
:1005C00084E80F003146154802F0B6FD0028EAD154
:1005D000134B2A7A012103F1C00088F800109AB168
:1005E000197E914203F110030ED18342F7D104B07A
:1005F000BDE8F0816E463146084802F09DFD0028B6
:10060000F9D104B0BDE8F081002388F8003004B0CF
:10061000BDE8F0819012FF1FBC11FF1F0014FF1FE7
:10062000EC10FF1F9C12FF1F104B1149F0B4421C2D
:1006300003F1D00700260E72047803F8014C146809
:100640001C60948895799D719C801033BB4201F1A8
:10065000100102F10702EED10649074A074B09785B
:1006600082F8CF1001221A70F0BC7047C511FF1F2D
:10067000EC10FF1FE810FF1FBC11FF1F9012FF1F9F
:10068000F8B51C4B0546002203F1D0001A605A60F1
:10069000103383424FF00001F8D1174C21702378BA
:1006A0002BB90F2000F020FD2378002BF9D0134F39
:1006B000134B97F8CF201A7000215C22284607F0D0
:1006C0006DF92A463B7A02F8013B002107F1090344
:1006D000D9371E689C88987943F8011CC3F8031029
:1006E0001033BB4216609480907102F10702F0D182
:1006F0002846F8BDF410FF1F9C12FF1FEC10FF1FCF
:10070000E810FF1F30B50F4A0F4D83B000230824B7
:10071000180103F10D012B5001330D2BD47142F858
:10072000101BF5D100230093084A0949094802F03B
:1007300013FC094A09490A4803B0BDE8304000F0FB
:1007400061B900BFBC11FF1FEC10FF1F9C15FF1FFC
:1007500090D003000014FF1F9FBB0D006505000033
:100760009412FF1FF0B50D460021CFB00C465C225D
:10077000064607F013F92146402219A80794089469
:1007800009940A940B946F1C07F008F92146402243
:1007900029A807F003F9384607AA402105F0B4FF5D
:1007A00007A805F14101142207F062F820B10523E2
:1007B000337030464FB0F0BD19AB3B4A3B49384629
:1007C00003F026F819AB0344374A384905F12100F4
:1007D00003F01EF829AA364919A803F0DBF829A866
:1007E0001422344907F044F830B1334B1B68002B16
:1007F00039D102233370DCE72F4D039003AC2B6813
:100800006060A060E060002B32D01D4694E80F00CD
:100810000DAC84E80F0011AC2022002120460C957D
:1008200007F0BCF800940CA81F4B204A142103F0D9
:1008300051F8C0B1204639AB1D4A152102F08EFF98
:1008400088B141AB1A4A0B210DF1590002F086FF25
:1008500048B149AA402139A805F056FF39A95422C8
:10086000701C00F099FA0123304633704FB0F0BD90
:1008700002F0E4FE00F016FC02F0F8FE4FF0FF314B
:10088000002002F0F9FE03460028F7D000202B607C
:1008900001F0ECFF0346006859689A68DB682D6830
:1008A00027460FC7B2E700BF5007FF1FFC06FF1F18
:1008B0003007FF1F1C07FF1F8C12FF1FF0B55C22C3
:1008C0008FB00D460446002107F068F8002302228D
:1008D0001946227005A824220193009302930393E2
:1008E000049307F05BF86A46681C102105F00CFFC2
:1008F00005F111016846142206F0BAFF38B92C4EF2
:10090000D6ED007AF5EE407AF1EE10FA09D0052323
:100910002370284B1B680BB90323237020460FB0AC
:10092000F0BD254805F066FF234805F09DFF234BE9
:1009300086ED000A93E8070005AB03C323F8022BFA
:10094000120C30681A7005AACDF81F000F2110464E
:1009500001F0AAFF0028DCD009AA102105A805F0A3
:10096000D3FE05AD04F1010E0DF1340C2F460FCF6F
:100970006745CEF80000CEF80410CEF80820CEF877
:100980000C303D460EF1100EF0D13868CEF8000064
:1009900001233068237006F013F941EC100B02219B
:1009A000074800F015F9064800F0C0F8B1E700BFAD
:1009B000B812FF1F8C12FF1FA012FF1F7007FF1F2E
:1009C0009007FF1F38B5094B09490A4A00258024C2
:1009D00018461D601C7101F043FF9FED070A074890
:1009E0002121BDE8384005F001BF00BF9412FF1F70
:1009F00059050000F806FF1F33335340A012FF1FB4
:100A0000704700BF0368F0B4FBB1002501249D606E
:100A1000DC601B4C1A601C44241104F130056A117F
:100A2000032692009E60174F0679174B47F8241053
:100A300002F1604202F5614205F01F05012000FA53
:100A400005F5E6541560F0BC7047104C236843F47C
:100A50000003236000BF0E4B0E4DA4F58734A4F5B0
:100A60009E7401261E60234604609C68002CD0D032
:100A70001033AB420360F8D1002303601846E2E76D
:100A8000008FFCBF7C07FF1F30E400E03C80044087
:100A900000700340407103400168A9B10B4BF0B4F2
:100AA0000B441B110A4E0B4F0B4D46F8237003F1FC
:100AB000300202F01F0401235211A340002445F824
:100AC00022308C600460F0BC704700BF008FFCBF18
:100AD0007C07FF1F010A000080E100E0024A034B8F
:100AE000012111601B6818470C7103407C07FF1F30
:100AF000024A034B012111605B6818471C710340D7
:100B00007C07FF1F024A034B012111609B681847B5
:100B10002C7103407C07FF1F024A034B0121116027
:100B2000DB6818473C7103407C07FF1F00B5064A8D
:100B3000036812885B6883B001A9ADF80420022223
:100B4000984703B05DF804FBBC7D0000F0B5074694
:100B50008BB0002A33D0012A08BF0A2251B32124C6
:100B600000E0F4B2B1FBF2F502FB1511C8B209299D
:100B700000F1300198BFC8B20AA988BF37302144BC
:100B800088BFC0B201F8240C661E2946002DE8D1AA
:100B900033B1013CE4B20AAB23442D2203F8242CE8
:100BA0003B6801AA11195B683846C4F122029847D4
:100BB0000BB0F0BD30228DF825202124E8E7036832
:100BC000C9B21B6898470BB0F0BD00BFFFFFFFFF25
:100BD0002DE9F04357EC106B85B005460C4610EE3E
:100BE000102A3B4610EE100A394606F0D7FA0028C4
:100BF00040F0B28027F00049304649464FF0FF32BE
:100C0000594B06F0CBFA90B9304649464FF0FF32C7
:100C1000554B06F0A5FA50B92B6854495B68284635
:100C2000032298478046404605B0BDE8F0834FF068
:100C300060424F4B3046394606F0A6FA002872D182
:100C40004FF060424B4B3046394606F07FFA0028A1
:100C500069D1002200233046394606F077FA002891
:100C600064D18146002C67D0434900204FF0000832
:100C70003BA3D3E9002308F1010805F0F5FF5FFA73
:100C800088F39C42F4D802460B463046394605F0BC
:100C900039FE0F46064606F097FA804605F06EFFCD
:100CA00002460B463046394605F02AFE4B460646BC
:100CB0000F460A2241462846FFF748FF0F2C28BF5F
:100CC0000F2404F101092E2380465FFA89F98DF87B
:100CD000003001240022294B3046394605F0C4FF7C
:100CE0000F46064606F070FA04AB2344C0B200F18A
:100CF000300203F8102C05F051FF02460B46304637
:100D0000394605F0FDFD0134E4B24C4506460F4678
:100D1000E0D12B6822465B682846694698474046E2
:100D200005B0BDE8F0832B68154977E707F100436C
:100D30001F464FF0010995E700220F4B3046394618
:100D400005F0E0FD06F040FA4B4601460A2228462F
:100D5000FFF7FCFE804666E72B680A495EE700BFA6
:100D6000000000A09999B93FFFFFEF7FC87D000008
:100D7000FFFFEF41FFFFEFC10000E03F0000244014
:100D8000C47D0000C07D000008B5FFF76FFBFFF7D2
:100D900095FB01F0F3FAFAE7844641EA000313F009
:100DA00003036DD1403A41D351F8043B40F8043B72
:100DB00051F8043B40F8043B51F8043B40F8043B35
:100DC00051F8043B40F8043B51F8043B40F8043B25
:100DD00051F8043B40F8043B51F8043B40F8043B15
:100DE00051F8043B40F8043B51F8043B40F8043B05
:100DF00051F8043B40F8043B51F8043B40F8043BF5
:100E000051F8043B40F8043B51F8043B40F8043BE4
:100E100051F8043B40F8043B51F8043B40F8043BD4
:100E200051F8043B40F8043B403ABDD2303211D374
:100E300051F8043B40F8043B51F8043B40F8043BB4
:100E400051F8043B40F8043B51F8043B40F8043BA4
:100E5000103AEDD20C3205D351F8043B40F8043B74
:100E6000043AF9D2043208D0D2071CBF11F8013B72
:100E700000F8013B01D30B8803806046704700BF38
:100E8000082A13D38B078DD010F003038AD0C3F147
:100E90000403D21ADB071CBF11F8013B00F8013B29
:100EA00080D331F8023B20F8023B7BE7043AD9D3E8
:100EB000013A11F8013B00F8013BF9D20B780370BD
:100EC0004B7843708B7883706046704708B5104C40
:100ED00008E0236859050DD423681A050FD4236848
:100EE000DB0411D423685803F3D500F0B9FA236862
:100EF0005905F1D500F00EF823681A05EFD500F07A
:100F000009F82368DB04EDD500F004F8EAE700BF38
:100F10003480044008B5FFF7D9FF00BF014B102211
:100F20001A80704700200540704700BF094908B586
:100F30000B6830B16A461844A2F50052904202D2C2
:100F40000860184608BD06F09DF90C2303604FF0B9
:100F5000FF3008BD8C07FF1FF0B44D1E2E46002445
:100F600000E00134B0FBF2F302FB1300092800F1AA
:100F700030078ABF3730F8B2C0B206F8010F184602
:100F8000002BEED10A1953704CB1107815F8016F8F
:100F900028700133E01A834202F80169F5DB084644
:100FA000F0BC704710B4114B53F8302092F88042D7
:100FB00034B1012379B182F880305DF8044B704779
:100FC00003EBC0035B681A6851B922F002021A6091
:100FD0005DF8044B704782F800315DF8044B7047B0
:100FE00042F003021A605DF8044B7047CC7D0000AC
:100FF0001C4A02EBC00301295B6811D004291BD0F5
:1010000052F83000002280F8802229B1022920D035
:10101000032922D01A6070474FF480721A6070471B
:1010200052F830004FF4A27280F880121A601A68E9
:1010300022F020021A60704752F830104FF4A2726A
:10104000012081F880021A601A6842F020021A60BA
:10105000704740F203121A6070474FF481721A60B1
:10106000704700BFCC7D000030B4054B054D064CE9
:10107000002210211A602A602060196030BC70477D
:1010800014D0034004D0034000D003403F2801D8CF
:10109000FFF788BF704700BF3F2801D8FFF7A8BF00
:1010A000704700BF72B60C490C4B0D4A1B680868AC
:1010B000126862B6520102D5322B88BF013009494D
:1010C000C3F5EA334FF47A72BF33A1FB031302FB7B
:1010D00000F000EB93107047BC12FF1F18E000E017
:1010E00004ED00E0898888882DE9F843054672B64A
:1010F000204F214B214A1B683C68126862B652019E
:1011000002D5322B88BF013495B3C3F5EA331C4EA8
:10111000DFF86490DFF86480BF334FF47A72A6FB87
:10112000031302FB04F404EB931472B6D9F8001015
:101130003A68D8F800E062B6C1F5EA33BF33A6FBDF
:1011400003031EF0806FC4EB93134FF47A7002D048
:10115000322988BF013200FB0233B3F57A7F04D312
:10116000013D05D004F57A74DFE701F007F9DCE70B
:10117000BDE8F883BC12FF1F18E000E004ED00E0BA
:1011800089888888F8B53E4B3E49DFF818C13E4E45
:101190003E4ADFF814E13E4D3E4C3F4F4FF00060B9
:1011A00018604FF0805018604FF0005018604FF0FA
:1011B000804018604FF0004018600020086028232D
:1011C0004EF6FF71CCF80010CEF8003033600EF50B
:1011D000012E13602B60236005F500253B6004F5AC
:1011E0000024B36207F50027936206F5012602F595
:1011F00001220EF1100E05F6E87504F6E87407F505
:101200007F67103220362B602360CEF800303B60C1
:1012100013603360214EBB61936109223260A7F5F0
:10122000002706F58056203F083638603160BB60E5
:10123000F36047F8042C06F5FD2607F5FE2706F2B5
:10124000FC76043730603960B360FB6046F8042CEC
:101250000836C7F8FC0F06F6FC76114831602B60A3
:101260002360026001F0CEF91920FFF73DFF00F086
:101270005DFE40F21310BDE8F840FFF735BF00BF38
:1012800004E100E004800340148003401C8003401C
:10129000248003402C8003403480034000800340BE
:1012A00000900B40088003400C800340431E032B3A
:1012B00014D872B60A4951F8230068B170B4094CC9
:1012C000058834F81320466841F82360521B24F83F
:1012D000132062B670BC704762B67047002070473A
:1012E0001813FF1FE015FF1F013803280BD872B633
:1012F000074B53F8203043B100205B680130002BCE
:10130000FBD162B67047002070471846F9E700BF6E
:101310006C13FF1F30B472B62B4A13781D0706D525
:101320002A4B196A002936D0996A002941D053788E
:101330001C0706D5254B196C00293ED0996C002955
:1013400039D09378190705D5204B196E002936D06E
:10135000996E89B1D3781B0707D51C4BD3F8802031
:101360007AB3D3F8882011213AB162B6184B002223
:101370001A7030BC00F072BE0D21154C154D22784C
:1013800043F8315003EBC1030830013A5860227032
:1013900062B630BC704704220D4C0F4D217843F8E3
:1013A000325003EBC20308304A1E5860227062B606
:1013B000EFE70521E1E70921DFE70822ECE70C224E
:1013C000EAE71022E8E700BF3C8000000000FF1FB2
:1013D0009513FF1FC800400088004000431E032BE8
:1013E0001DD81B4A400140F0100030B4104472B6C2
:1013F000184CE25C032A1BD8DFE802F00212151732
:1014000003220D88E25410F0080F14BFC82388236C
:1014100043EA054308310360416062B630BC70475F
:1014200008300222EDE70522EBE708300422E8E766
:10143000094A52F8230038B1084A52F823004160A3
:1014400042F8231062B6E9E742F82310034AF7E7AF
:101450000000FF1FA413FF1F6C13FF1F7C13FF1F4F
:101460002DE9F04FDFF818B3DFF818A387B044E098
:10147000AE4F4FEA930807EBC809013ED9F80420A4
:1014800003F00803F6B2A2F1080003F0FF04002BFA
:1014900040F0048157F838301B0C99B222F8081C30
:1014A000002B00F0F280A24B22F8064C42F8044CCC
:1014B00053F82620002A00F06E819E4D55F8263004
:1014C00058609D4C45F8260034F81630194424F82D
:1014D000161000F0A3FD002800F05681974A984BA3
:1014E00019F0080F00F1080018BF1346C9F80400EE
:1014F00047F8383008238BF800309BF80040E4B2FE
:1015000061071BD58F4B1B78ABB18F490A7802F06E
:10151000FF032AB1013BDBB20B70002B00F0EF841C
:101520008A490A7802F0FF032AB1013BDBB20B7053
:10153000002B00F0F78004238BF8003004F0080340
:1015400003F0FF02002B00F0D6809AF80030DBB2E7
:101550001E098DD19C08DFF8D49159F8342009EB8D
:10156000C401C2F38302013A49680C2A7ED8DFE83D
:1015700002F081817D7D7D7D7D7D477D7D7D0700C4
:101580000868734D4A68734F734E286081B240F209
:1015900081606A4B6A604FF0010E0022814249F877
:1015A00034303A60C9F81020C9F8182086F800E0F5
:1015B0005E4C00F2F480B1F5D06F80F07883B1F525
:1015C000817F00F0628300F28782802900F0EC8244
:1015D000822940F01E83A98801F07F01042900F2CE
:1015E00018835E485E4C890008442270627002785D
:1015F000930740F1798384F800E04FF0020ED8E2BF
:10160000544F3A6842B3574B534E57491888347871
:101610000D784028864645F0020828BF4FF0400E5E
:10162000002C84F001043470CEEB00000CBF882441
:10163000C82409EBC80680B285F0010544EA0E44CF
:101640007260188049F8384072440D7018B9BEF1C4
:10165000400F18BF00223A603D4B1A88B2F5A06FC8
:1016600004D100219A785970404B1A70404A0123E6
:1016700013703FE7364A158842F22100854200F098
:10168000FF812E4A49F83420F0E72C4A2C4B19F000
:10169000080F18BF134647F838302BE700F0DEFC80
:1016A000344A354952F82630002B00F0B68158688C
:1016B0008C5D42F8260003F10802C9F80420032CCF
:1016C00005D8DFE804F0120F150204228A551A88A3
:1016D00019F0080F0CBF8823C82343EA024347F8D8
:1016E000383007E702228A55F1E703228A55EEE7F0
:1016F00005228A55EBE7E00700F11A82210600F186
:101700004982A20706D51D4A1D4913780220DBB283
:1017100013700870E30602D5194B10221A7007B037
:10172000BDE8F08F00F006FE05E700BF0000FF1FD8
:101730001813FF1FC412FF1FE015FF1FC800400051
:1017400088004000A013FF1F2913FF1FA813FF1FCD
:101750008C13FF1FC012FF1F2813FF1FC02007405C
:101760009813FF1FD412FF1F9413FF1F98200740E8
:10177000942007406C13FF1FA413FF1F882007400D
:101780008020074090200740AB4A47F83800137884
:1017900001331370AEE643F82600A84D91E642F2FD
:1017A0002100814200F0358100F2AF81B1F5086F70
:1017B00000F01B82B1F5106F40F02B82226AA04925
:1017C000A8780870120600F14583D9F828209D49B1
:1017D000130600F13A83D9F830209A49150600F132
:1017E0002F83D9F838209749140600F12483D9F8BB
:1017F00040209449100600F11983D9F848209149F6
:10180000120600F10E83D9F850208E49130600F11C
:101810000383D9F858208B49150600F1F882D9F8CE
:1018200060208849140600F12983D9F86820854989
:10183000100600F11E83D9F870208249120600F1CB
:101840001383D9F878207F49130600F10883D9F86B
:1018500080207C49150600F11C83D9F8882079493D
:10186000140600F11083D9F890207649100600F193
:10187000C882D9F898207349120600F1BC827248D8
:10188000724A7349019073486C4D734C049700235E
:1018900005960295804617460E461D460394386805
:1018A00028B1446800F0DAFB2046002CF9D100236F
:1018B0003B60029B30681A46002342F8253028B16D
:1018C000446800F0CBFB2046002CF9D100223260A6
:1018D000019A98F800301146002241F8042B039A2F
:1018E0000191023B4FF0000122F81510032B09D89B
:1018F000DFE813F04B0104004B0104004FF001033B
:1019000088F800300135042D07F1040706F10406BC
:1019100008F10108C3D1514C514B2278464D049F28
:10192000059E002129701A70130700F14F8262781A
:101930004C49DFF810810A7010074FF00001C9F818
:101940003010C9F8381000F12B824749A2780A708C
:101950000021C9F85010C9F858101107DFF8E480C9
:1019600000F1DC81E2784149364C0A70002112070F
:10197000C9F87010C9F8781000F1B9813378019373
:10198000002183F00102C9F89010C9F898100020D6
:10199000029080468446044635490D7845F0020E93
:1019A00009EBCE030393019B002B039B5C600CBFF0
:1019B0008824C82444EA080385F0010449F83E302D
:1019C00032700C70DFF87CE02A4BDFF8A48000282E
:1019D00040F02681BCF1400F1BD144F0020C09EB12
:1019E000CC03029CDFF85CE05C60002A40F02E81B2
:1019F000020442F088029DF804304EF83C20044472
:101A000033700D702346402803D100201A4A3B60F2
:101A100010801A4A0123137028E68B5D032B00F215
:101A20002D8101A252F823F0F5140000F5140000F6
:101A30007F1B0000851B00009513FF1FC412FF1FB2
:101A4000A013FF1F0000FF1F7C13FF1F1813FF1FB1
:101A50006C13FF1FA413FF1FE015FF1F3C80000045
:101A6000C4200740C8200740CC200740D0200740B2
:101A70009413FF1F2813FF1FD412FF1F9420074049
:101A8000928892B9B14A0D784878157050708D7867
:101A9000C8789570D07010680D79157186284D79C9
:101AA00089795571917100F0A580A949A94E0A78EC
:101AB000307882F00105002842F002020D700CBF60
:101AC0008821C82149F8321009EBC20280F00100D8
:101AD000002130705160D4E540F20232914240F072
:101AE0008D80A98801F07F01042900F292806A8824
:101AF000002A40F08E809848CDF804E08900084420
:101B0000017841F00201017041E742F22120814257
:101B10007BD1A988002940F0E480904B904A9148FD
:101B2000AC781D681560CDF804E00A4604702EE715
:101B30008D4B8E4886491A614FF0020E80F800E006
:101B4000854F0A708A49196099608A4E8A4D8B4C7C
:101B50009A610D213970FF213170DFF840E2297060
:101B60002270874D874A8EF800109F27012406F8BF
:101B7000047C5D600470DA6007B0BDE8F08F00237C
:101B80008B55B7E401238B55B4E44FF0000388F87C
:101B90000030B7E67049784B80220D2008701A702B
:101BA000A2077FF5B7ADAEE5774C4FF0020E22707D
:101BB0006270EA88724580F0A38165490D78402AF9
:101BC000944645F0020E28BF4FF0400C04EB0C0386
:101BD00009EBCE000293012344604FEA0C48CCEBA2
:101BE000020001930022C824E4E6684A664C127899
:101BF0002270DEE7664A0F21117056E7B1F5A06F3B
:101C000007D1012300220193C1E642F22132914221
:101C1000F7D0514A0F231370544A0123137025E55E
:101C200040287FF6DAAE44F002040EEBC401029EB7
:101C30004E60BAB19DF80410564A197033464038C8
:101C400088F8005040334EF83420DFE69DF8043029
:101C500033700204029B0D7042F0C80203444EF838
:101C60003C20D0E69DF804101970029B404A88F889
:101C70000050403840334EF83420C7E619F0080FC2
:101C80000CBF022303238B5534E4A98801F07F01A4
:101C90000429BED86A88002ABBD12F48CDF804E0B9
:101CA00089000844017821F0020101706FE63A4A88
:101CB0005468002CADD06888B5F804E003E00C321D
:101CC0005468002CA5D013888342F8D153887345FB
:101CD000F5D1000A03280CBF94F800E0B2F808E040
:101CE00067E7CDF804E052E64FF0020E61E700F03E
:101CF00095F9002800F0F18008301D4AC4F88400EE
:101D0000C4F8802000F08AF9002800F0E080083054
:101D1000204AC9F88C00C9F888202FE600F07EF927
:101D2000002800F0E6800830114AC8F86400C8F8BE
:101D3000602000F073F9002800F0D5800830154AC3
:101D4000C9F86C00C9F868200CE600BFE815FF1F51
:101D50009413FF1F2813FF1FC0200740BC12FF1F52
:101D6000F015FF1FB813FF1F0000FF1F942007404E
:101D700088004000882007408020074098200740C6
:101D8000D812FF1F2C13FF1F9813FF1FA013FF1F54
:101D90002913FF1FC8004000408000008C2007402E
:101DA00000F03CF9002800F08C8008305D4AC8F84B
:101DB0004400C8F8402000F031F900287BD00830FA
:101DC000594AC9F84C00C9F84820BEE500F026F988
:101DD00000286AD00830534AC9F82400C9F82020E6
:101DE00000F01CF900285AD008304F4AC9F82C00DE
:101DF000C9F828209BE5D1F89C00083800F02EF99E
:101E00003DE5D1F89400083800F028F931E5C86DB7
:101E1000083800F023F902E5486D083800F01EF993
:101E2000F7E4C86C083800F019F9ECE4486C08389D
:101E300000F014F9E1E4C86B083800F00FF9D6E4BB
:101E4000486B083800F00AF9CBE4C86A083800F09B
:101E500005F9C0E4606A083800F000F9B5E4C86F1D
:101E6000083800F0FBF8F2E4486F083800F0F6F8A4
:101E7000E7E4C86E083800F0F1F8DCE4486E083892
:101E800000F0ECF8D1E4D1F88C00083800F0E6F866
:101E9000E9E4D1F88400083800F0E0F8DDE42A78BD
:101EA000C9F8280001322A7041E52A78C9F82000D3
:101EB00001322A7094E72A78C9F8480001322A7062
:101EC00043E52A78C8F8400001322A7073E72A787F
:101ED000C9F8880001322A7050E52A78C4F88000D9
:101EE00001322A700EE72A78C9F8680001322A7098
:101EF00038E52A78C8F8600001322A7019E700BE78
:101F0000BEF1400FF44628BF4FF0400C04EB0C0329
:101F100002930123CCEB0E004FEA0C480022019300
:101F20003AE500BF88004000C80040002DE9F843B2
:101F3000244C00F057FC002204F1A00023461A6054
:101F40005A60083383424FF00001F8D11E481F4AFF
:101F50000368DFF890E01E4F1E4D1F4EDFF88880AB
:101F6000DFF888C0DFF8889043F4802303601368AB
:101F70001A4843F040731360C4F307238EF800300F
:101F8000C4F307433B70240EFF2302F5C9222C70D3
:101F900002F5847288F80030114D8CF800303370EF
:101FA000012389F8003070268EF864104FF4001475
:101FB000102107F82C3C2E70046011700EF1640E95
:101FC000BDE8F8830000FF1F3480044000D80040C3
:101FD000B0200740B42007401020074004E100E093
:101FE00035E400E09C20074080200740882007401F
:101FF0009420074000F0A2B800F07AB800F054B87E
:1020000000F08EB800F06AB900F044B908461146F5
:1020100000F0B0B8084600F031B900BF72B60D4804
:102020000268B2FA82F30B2B10DC4FF00041D9406A
:1020300022EA0102026062B6074803EBC303DB0039
:10204000C2180021C15010465160704762B600208E
:10205000704700BFA007FF1F9803FF1F0D4B0E4ADC
:10206000C31AA2FB03231B090B2B0CD80B4A1278B3
:1020700052B972B60A484FF00041026821FA03F3E0
:102080001A43026062B67047064A1278002AF0D0FE
:10209000FFF740B99803FF1F398EE3389513FF1FF0
:1020A000A007FF1FA013FF1F38B50F4D286878B198
:1020B00043880288C118013393420C7A02D24380CC
:1020C000204638BDFFF7CAFF002320462B6038BDED
:1020D000064B1B782BB10320FFF7E8F82860002897
:1020E000E6D14FF0FF3038BDB413FF1FA013FF1F20
:1020F00010B5094C206818B143881844007A10BD07
:10210000064B1B782BB10320FFF7D0F82060002886
:10211000F2D14FF0FF3010BDB413FF1FA013FF1F0B
:10212000044B054A1B6890881BB11A885B88D31A38
:1021300018447047B413FF1FE015FF1F0B4B1B78AB
:102140009BB110B50A4C206848B1FFF787FF002308
:1021500003202360FFF7AAF830B1FFF77FFF0320C9
:10216000FFF7A4F80028F8D110BD7047A013FF1F97
:10217000B413FF1F2DE9F04FDFF8F89083B0012270
:1021800089F80020019169B3DFF8EC80364F019E99
:102190008346D8F80000B0B3344D4488C4F1400100
:1021A000B14228BF314604EB010E00221FFA8EFE19
:1021B0002A70761AA0F802E000F1080251B1013C41
:1021C000224459441BF8014B02F8014F8B45F9D1C9
:1021D000B0F802E0BEF13F0F0BD8254A052111707F
:1021E000002ED6D10198002389F8003003B0BDE855
:1021F000F08F4022028001460420FFF7EFF8002212
:10220000C8F80020E9E73A782AB3184D4DF2E904FE
:102210004FF0010A07E0013C16D02A78A2B900F07D
:10222000ADF83A78BAB10420FFF75EF80728F2D883
:1022300089F800A0FFF7F2FEC8F800000028ACD132
:102240000C4B013C1870E8D101234FF0FF302B708C
:1022500003B0BDE8F08F00234FF0FF3089F8003065
:1022600003B0BDE8F08F00BFA013FF1FB013FF1F26
:10227000A813FF1FA913FF1FAC13FF1F00B583B0E6
:1022800002AB012103F8010D1846FFF773FF03B0FD
:102290005DF804FB38B50E4D0E4C28680123237001
:1022A00028B1408800232370C0F1400038BD0A4B9C
:1022B0001B7813B90020207038BD0420FFF714F8F4
:1022C0000728F7D8FFF7AAFE28600028E9D1F1E730
:1022D000AC13FF1FA913FF1FA013FF1FF8B5114B6D
:1022E0001B788BB1104E114D346801272F7064B1EB
:1022F0000F4A638800271770214623800420FFF7C8
:102300006DF8376000232B70F8BDFFF787FE084B90
:1023100028B1014604201C70FFF760F8F2E71F7037
:10232000F0E700BFA013FF1FAC13FF1FA913FF1F8F
:10233000A813FF1F38B50E4B1B7873B90D4C2168DD
:1023400061B103F0FF054B880B800420FFF746F8CE
:10235000256038BD084B01221A7038BDFFF75EFEBC
:102360000028F7D00146BDE838400420FFF736B812
:10237000A913FF1FAC13FF1FA813FF1F2DE9F8437C
:10238000314E337893B1314F3A787AB90122D90777
:102390003A7036D49A0719D400225B073A7005D5F3
:1023A0002B4B1A6812B1EFF305820AB1BDE8F8832E
:1023B000EFF3108172B6186818B1264C2278002A03
:1023C0002ED00029F2D162B6BDE8F883DFF8908004
:1023D00098F80020002ADFD0DFF88890002405E07C
:1023E000013498F80030E4B2A34212D959F82450CD
:1023F0002B6828461B6998470028F1D02B6998471D
:10240000EEE7FFF78DFEC8B9134B1B781BB9337885
:10241000C0E73378C0E7337803F0FE033370B9E7E1
:1024200045691D60012323705DB1AA6101B962B6DF
:1024300000254577836898472570B7E700F0D0F905
:10244000E2E7064B1D60F1E7A407FF1FB913FF1F6A
:10245000C813FF1FCC13FF1FA707FF1FC413FF1FC5
:10246000E813FF1FD013FF1F70B5EFF3108272B691
:102470000C4C206880B10C4E00254369236073B179
:102480009D6102B962B6457783689847EFF3108281
:1024900072B620680028F0D102B962B670BD336010
:1024A000EFE700BFBC13FF1FC013FF1FFFF7DCBF28
:1024B000024A136801331360704700BFBC12FF1F4C
:1024C000374A384913681B06FCD40B6813F08003A5
:1024D000F8D172B634490A78002A5FD0334A3448BA
:1024E000F0B4344C176806682568D4680C303E4454
:1024F000143200681268304F35442C4420440244A2
:10250000C2F34E022D4E2E482E4D2F4C42F4004267
:102510003A60376806682D682C4A24680C303E44BF
:10252000006812682A4F35442C4420440244C2F308
:102530004E02284E2848294D294C42F400423A6068
:10254000376806682D68274A24680C303E440068C6
:102550001268254F35442C4420440244C2F34E02F5
:10256000224E2348234D244C42F400423A603768FF
:1025700006682D68214A24680C303E4400681268C1
:1025800035442C4420440244C2F34E021C4842F419
:10259000004202600B7062B6F0BC704762B67047D2
:1025A00024B0034024B00B40EA13FF1F38B00340AF
:1025B0003CB0034040B003402CB0034058B003404F
:1025C0005CB0034060B0034064B003406CB00340B3
:1025D00030B0034038B00B403CB00B4040B00B4033
:1025E00044B00B404CB00B402CB00B4058B00B40EB
:1025F0005CB00B4060B00B4064B00B406CB00B4063
:1026000030B00B4030B42948294A2A4B2A4D602467
:10261000E121047011701B78284C082B30D00A2B54
:102620002748284937D00C2B0CBF35225D221223B6
:102630002A60236002600B60234B24491B78244AE4
:10264000BBB101230B601360224B23491B78234A43
:10265000012B26D9042B0FD9082B1ED9102B94BF80
:10266000862387230B6013601D4B01221A7030BC38
:1026700070470B601360E7E784230B601360F3E798
:1026800000F58E200F490830212213232A60236091
:1026900002600B60D0E73922F7E785230B601360F7
:1026A000E2E780230B601360DEE700BF00400740D5
:1026B00001400740A507FF1F08B003400CB00340CE
:1026C00008B00B400CB00B40ED13FF1F20B00340CF
:1026D00020B00B40A607FF1F24B0034024B00B40DE
:1026E000EA13FF1F47282FD8334B2DE9F0411E5C1A
:1026F000FF2E2BD0314B1B78002B2AD132062CD445
:1027000072B62F4D2F4C2F46012326602B7062B6D8
:1027100072B623681B060CD43B781BB9F4E72B7800
:10272000002BF1D062B6FFF729FE72B623681806B7
:10273000F5D5254B1B6800222A7062B6234A107813
:1027400043FA00F0BDE8F081002070470020BDE8AA
:10275000F081FFF7B5FE3206D2D572B61C4DDFF818
:102760007C801C4C06F04007FFB206F03F06D8F80C
:102770000030DFB123F01003C8F8003001232660D9
:10278000134A2B7062B672B6236819060CD41378FC
:102790001BB9ECE72B78002BE9D062B6FFF7EEFD12
:1027A00072B623681B06F5D50B4BC3E743F0100345
:1027B000C8F80030E2E700BFF47F0000EA13FF1F13
:1027C000EC13FF1F00B0034010B00340E913FF1FDC
:1027D000EB13FF1F00B00B4010B00B400CB00B40D0
:1027E000704700BF72B6184A184B19491160702221
:1027F00080211A701A46197013781B06FCD510B583
:10280000144B84B0186862B6134B144C984298BFAE
:1028100000EB800001A998BF40000A22FEF79CFB54
:1028200001A92046002311F8012B01333AB10A2BEC
:1028300020F8022FF7D11623237004B010BD5B00DF
:10284000DBB2237004B010BD04000240000002405F
:10285000000007410C0002407F9698003408FF1FDB
:102860000B460146184604F007BD00BF38B540B11D
:1028700003460B4C59689A680068DB680FC4084827
:1028800038BDFEF70FFC074C04F02AF804F11005E0
:10289000FF2004F02BF804F8010FAC42F8D1EEE76A
:1028A000F013FF1FEF13FF1F4B1E0E2B00F2A3812F
:1028B0002DE9F04FD44B914606460C460FCB8DB018
:1028C000C4F1100508AF4E4587E80F00EDB200F0E7
:1028D00094813146224609EB0500FEF75DFAFEF7CA
:1028E000E1FB03F0FDFF0F2004F000F8012D40EAAA
:1028F000051089F800000CD0C4F10E05EDB20135C9
:102900004D444C46FF2003F0F1FF04F8010FAC42A8
:10291000F8D1BE4B4FF0010E09330693A3F109061F
:102920009A467346BA4C9DF82D10B94F615C9DF8DC
:1029300020409DF82E509DF82F009DF82C2017F870
:10294000058017F800C0BD5C9DF821009DF822208D
:10295000614059409DF823308DF8201088EA00002E
:102960008CEA02026B400DF123048DF821008DF8F2
:1029700022208DF8233008AD2046002201E015F812
:10298000011F10F8013F01324B400C2A04F8013FAF
:10299000F5D1564502D016F8013FC3E70DF11F00EF
:1029A00049460A7810F8013F534001F8013B0DF108
:1029B0002F039842F5D100239DF82FB003933621C1
:1029C00009F1FF33DFF84CA207930E46DC46C846F8
:1029D0000BAC0CA80DF12F05002201E015F801CD7C
:1029E00014F8013D013A8CEA030C12F10C0F00F8C7
:1029F00001CDF3D19DF82D308549854CC95C9DF8FA
:102A00002E209DF82030A25C9DF82FC09DF82C0050
:102A10004B409DF82110205C86EA0309514014F8D0
:102A20000C309DF822208DF820905A409DF82330DC
:102A30008DF8211043408DF82330039B8DF8222020
:102A4000002B00F0868000230193CDF810C0CDF854
:102A50001490019B9D00EDB2AB1C05F1010EEF1C23
:102A600018F8059018F80EC018F80710184618F84E
:102A7000033002908B461A468CEA010189EA03036F
:102A8000644643F3C01041F3C01C00F01B000CF07F
:102A90001B0C80EA43038CEA410C5BB24FFA8CFCBE
:102AA000D8174FEAEC7100F01B0001F01B015FFA30
:102AB0008CFCDBB281EA4C0680EA4303DBB2F6B25F
:102AC00086EA04015A4089EA0303D4B28946594090
:102AD00089EA0400A44641F3C01404F01B0486EA0A
:102AE0000B0684EA410486EA030B6246634040F326
:102AF000C0144A4004F01B048CEA060184EA400436
:102B000041F3C01000F01B0080EA41004BF3C011FC
:102B100001F01B0181EA4B0172407140019ED2B26B
:102B200089EA04048CEA00000136534054405040C6
:102B30005140029A08F80530042E08F80E4001961C
:102B400008F8020008F8071083D1DDF810C0DDF89E
:102B5000149098F80D2098F80A1098F8013088F829
:102B6000012098F8022088F8021098F80F1098F8C1
:102B7000054098F8090088F8053088F80A2098F888
:102B80000E3098F80B2088F80B10079988F8094048
:102B900088F80D0098F8064098F8030088F8063089
:102BA00098F8073088F80E4088F80F0088F807205A
:102BB00088F80330084608AC002201E014F8019FB1
:102BC00011F8013F1AF80330013289EA0309102A8B
:102BD00000F8019FF2D1039B069A0C4901338A4207
:102BE0000393134603D013F8016D0693F0E601201A
:102BF0000DB0BDE8F08F002070472246494609EB32
:102C0000050004F067FE6AE6F013FF1F94810000E0
:102C100094800000A081000000207047704700BF32
:102C200030B40B46054603C905EBC204043484E8FE
:102C30000300197911F0010F296812D11C6812489C
:102C40001023843113FB0211A4042040086029687A
:102C5000803113FB021230BC136823F4001313609D
:102C6000704718688431102313FB021120F0604074
:102C700008602968803113FB021230BC136843F4EA
:102C800000131360704700BF0000FC1F70B443883E
:102C900082689BB202EB031304461E685D689A6863
:102CA000DB68CB608A600E604D606388A18801207C
:102CB0009BB2034493FBF1F201FB12339BB263809E
:102CC00070BC7047F8B5204C204A21790546034670
:102CD00001F0FD0102202A606FF30001002285F857
:102CE00094014B2720261020C5F8A020C5F8F870C5
:102CF000A5F89661A5F8980121712260114643F864
:102D0000B02F05F1F00243F8041F93424FF0000486
:102D1000F9D1C5F88440C5F88840C5F88C40C5F89D
:102D200090409822214605F1FC0004F037FE1F2256
:102D30000F2385F8FC40C5F80841C5F80021C5F807
:102D40000C312846F8BD00BF9C15FF1F0040024013
:102D500038B5D0F8A03003B138BD0446B0F89801BA
:102D6000000103F0C7FDD4F8B020C4F8A000AAB158
:102D70000023B4F89851B4F89611A4F89430C4F82C
:102D80009C00A4F89630C4F8AC20A4F8A430A4F8B1
:102D90009850A4F8A810A4F8A63038BDB4F896014D
:102DA000000103F0A7FDC4F8B0000246D4F8A0006B
:102DB000DEE700BFF8B52C4BB3FBF1F5052DB3FBF7
:102DC000F5F6A1EB06064BD900229E461746931C4A
:102DD000B5FBF3F4192C02F1010203FB04F3F6D85E
:102DE000BEFBF3F3CB1A002BB8BF5B42B3422EDB22
:102DF0002FD0052CEBD87B1CB5FBF3F5053D142D2E
:102E00001CD8B6F5967F19DC184A006805EB450515
:102E10005319515D5A789B7801F0070141F4800104
:102E2000D20441F4804102F460121B040A4303F40B
:102E3000E023134343EA07674760F8BD39210C4894
:102E4000FFF798F90B48BDE8F840FDF76FBE1E4646
:102E500017460B2CCDD9122C9CBF1E461746C8E72F
:102E600001230027C8E700BF0024F4004C08FF1F1F
:102E7000A08200009007FF1F0F2930B404462DDC0C
:102E800069BBD0F8A030012084F8940123B300225C
:102E900010252368803315FB02330132196801F4D1
:102EA000001141F08061196094F89401C0F11003A1
:102EB000D2B2DBB29342ECD80F2B0DD810204FF0DA
:102EC00000612268803210FB03220133DBB2102B39
:102ED0001160F6D194F8940130BC70470F21D4F8FA
:102EE000A03084F894111BB11029D0D10023E5E75C
:102EF0000846F1E790F89431C3F11003DBB29A422F
:102F000021D2036810B41C68E4011DD41C6844F08D
:102F100080441C600468236843F080532360046885
:102F20002368DB01FCD504F5086404EB8202116020
:102F30000268136823F08053136002681368DB0192
:102F4000FCD45DF8044B704703F5086303EB820281
:102F50005DF8044B116070472DE9F04105461646B7
:102F600098460C469DF81870FFF7F2FE2A68524BFF
:102F70009A4200F08F80514A4F49137843F0800302
:102F800013702B688B427BD05A6822F400525A602F
:102F90002A68136843F0804313602A68136823F09B
:102FA000004313602A681368DB02FCD4136883F0C3
:102FB000007313602B681A689701FCD41A68D0015B
:102FC000FCD51A6842F400321A6021462846FFF701
:102FD000F1FE2A68136843F48033136095F8943146
:102FE000102B18BF002404D11DE00134E4B29C4230
:102FF00019D2224600212846FFF77CFF95F894312C
:10300000C3F11003DBB2A342EFD922463146284672
:10301000FFF706FE95F894310134C3F11003DBB2DB
:10302000E4B29C42E5D32A68136823F0805313600E
:103030002B681A68D101FCD41A681201FCD495F8E7
:1030400094112846FFF718FFD5F8F83003F16043D4
:1030500003F5644340221A70D5F8F82053099B0009
:1030600003F1604303F5614302F01F02012101FAFD
:1030700002F21A602B684FF6FF729A62BDE8F08187
:10308000A2F5E732A2F5E272136843F01003136071
:103090002B6879E7B8F1010F06BF03F51833483301
:1030A000074B4FF40072012F1A600CBF054B064B03
:1030B0004FF400721A605EE7004002400050064084
:1030C000309004404CA0044034900440D0F8F830D4
:1030D00030B45C09A10001F1604101F561410122B8
:1030E0000968144D03F01F0302FA03F3194008BFE7
:1030F000002280F8F42045F82430B0F8A430B0F86D
:10310000A6209BB292B29B1A44BFB0F8A8209B188D
:1031100069B1D0F8F8104A09920002F1604202F554
:10312000614201F01F01012000FA01F1116018460F
:1031300030BC704780E100E0F8B50446D0F8F800F4
:103140001A4F4609B30003F1604303F561430122BE
:103150001D6800F01F0002FA00F31D4214BF15465F
:10316000002584F8F45047F82630B4F8A420B4F8C9
:10317000A63092B29BB29A4216D004F1A400FFF797
:1031800085FD94F8F45075B1D4F8F82053099B00EC
:1031900003F1604303F56143012102F01F0201FACC
:1031A00002F21A60F8BDF8BD0020ECE780E100E013
:1031B00070B48B7913F0010F036828D00C681025C8
:1031C000843315FB023324F0604412FB05F21C60CB
:1031D00003688C68883324BA9C500368CC688C33AD
:1031E00024BA9C508B79DC071DD513F0020FCB79E4
:1031F00001684FEA034303F4702301F1800114BF17
:1032000043F0476343F046638B5070BC70470D68D2
:103210000E4C1026843316FB0233AD042C4012FBF7
:1032200006F21C60D4E713F0020FCB7901684FEA75
:10323000034303F4702301F1800114BF43F04163A1
:1032400043F040638B5070BC704700BF0000FC1F10
:103250000368F0B58033102717FB02338C791D68A3
:103260008D80C5F34056C5F30343C5F3005E66F396
:103270000004CB7106686EF3410404F0FB046FF3A5
:10328000C70417FB02668C7191F806E0D6F88440FB
:103290001EF0010F24F060440C60C5F3036504BF09
:1032A000A40C0C60062D25D0D6F88840CC72260AD6
:1032B000250C042B4FEA14648E724D720C7210D9D7
:1032C00000688C3017FB0202072B1268CA734FEAA2
:1032D00012244FEA12404FEA12628C7348730A7349
:1032E00007D807330B4400220F3103F8012F8B421C
:1032F000FBD1F0BD8C7944F004048C71D4E700BF9D
:103300000B884888F0B59BB28D88013393FBF5F4A8
:1033100005FB14339BB280B2834213D00888D2F8E5
:1033200000C0D2F804E09768D6688D6882B21201B6
:10333000AC1845F802C0C4F804E0A760E6600120BC
:103340000B80F0BD0020F0BDF8B50446D0F8F800C1
:103350002B4E4509AB0003F1604303F561430122A5
:103360001F6800F01F0002FA00F31F4208BF00228E
:1033700084F8F42046F82530B4F89430B4F8962058
:103380009BB292B29A4218D00A46204604F19401A8
:10339000FFF7B6FF94F8F43073B1D4F8F82053096E
:1033A0009B0003F1604303F56143012102F01F021A
:1033B00001FA02F21A60F8BDF8BD94F89421C2F146
:1033C0001002D2B20F2ADFD802F12D0504EB8505D9
:1033D000130104E00132102A03F11003D4D055F890
:1033E000040B0028F6D120688030C058C0F3036079
:1033F0000828EFD12046D2B2FFF7DAFE0120C9E754
:1034000080E100E02DE9F04F026889B0136B03936F
:103410008346054600F1B40A0024994608E0022BD1
:103420003AD00134102C05F108050AF1040A2ED017
:1034300029FA04F3D907F4D5270102F18003DB59F7
:10344000C3F30363062B27D0082BE8D1DAF800007A
:1034500008B90BF194000188438889B29BB2994264
:1034600000F09D800188438889B29BB29942D8D0F0
:1034700004A9FFF70BFC002840F0B280DBF8002025
:103480000134102C05F108050AF1040AD0D1039B80
:10349000136309B0BDE8F08F04A9E2B25846FFF704
:1034A000D7FE9BF8FC306BB1D5F814319DF816208F
:1034B00001335207C5F8143104D5D5F8183101335A
:1034C000C5F81831002201238DE88400A34002953D
:1034D0000BF180060BF190081D4656F8040F28B139
:1034E000426812EA05032BD1002A3FDBB045F4D134
:1034F000009B019F029D002B3FD09BF8FC3083B1C5
:10350000BBF8A430BBF8A6109AB28BB2D31A44BF52
:10351000BBF8A8209B18DBF804219A4238BFCBF8EF
:1035200004310BEBC4031B7ADB0714D5DBF8003046
:103530006A68843322F06042DA51DBF8002070E7D9
:1035400003681F682D4B9F4245D10020009B184304
:10355000C3B20093CAE76968DBF80030284A8904DF
:1035600084330A40DA51DBF800205AE70268176812
:10357000224A97423CD11846E8E704AA0BF1A4017D
:103580005846FFF7BDFE0028B7D19BF8FC30002B52
:10359000C7D0DBF808310133CBF80831B0E7012799
:1035A000A74047F000470BF180060BF1900856F852
:1035B000040F10B143681F4204D1B045F7D1DBF8C6
:1035C00000205DE703680F4A5B689342F5D0002254
:1035D00021469847F1E70023224604A9B847B5E7FA
:1035E000E2B204A95846FFF7E3FDDBF8002018E734
:1035F0004FF0FF3204A9B847A8E700BF192C00001C
:103600000000FC1F1D2C00000148FFF7FBBE00BF9F
:103610000014FF1F704700BF014B1B681B6A7047F7
:103620000014FF1F704700BF704700BF704700BF06
:1036300000210148FFF746BB0014FF1F09490A4B50
:103640000A6842F400720A601A6842F004021A60C2
:103650001A6842F002021A601A6842F001021A6007
:10366000704700BF3C80044000900240014B18604E
:10367000704700BFA415FF1F70B40E4C0E4E236898
:103680000E4D0F4A23F01003236033682B6013683C
:1036900013F47F4FFBD0074A0A4C136843F0100322
:1036A00013602268091AB2FBF1F301FB13210844ED
:1036B00070BC704700900240A415FF1F08900240A4
:1036C000049002400C9002402DE9F8430023C1F120
:1036D00020061370174688468146F6B2FDF7E2FCD5
:1036E00003F0FEF8012E0DD9C8F11E05EDB201352B
:1036F0003D443C46FE2003F0F9F8013004F8010F88
:10370000AC42F7D1B819002300F8013C42464946C3
:10371000BDE8F843FDF740BB38B50378DBB9024696
:10372000012302E0EBB2202B15D012F8014F5D1CF3
:10373000002CF7D10133DBB2202B0DD0C3F12003D5
:10374000DCB20246C4F120030846D1182246FDF738
:1037500023FB204638BD0024204638BDF0B54C1E62
:10376000142C97B028D800284DD04AB31C4603B378
:103770004FF0000E06460D460BAB05A902A8CDF88A
:1037800000E0174608AA00F027FE294630460EAA98
:10379000FFF79AFF0EA902A8202200F0E9FE88B1E7
:1037A000002400250BAB08AA05A902A8009500F08B
:1037B00027FE204617B0F0BD0024204617B0F0BD0C
:1037C0001446F6E70322114905A800F0D1FE0028AF
:1037D000E6D1202239460DEB020000F0C9FE002898
:1037E000DED1009008AB05AA02A90BA801F09AFC53
:1037F0000028D5D1214620220BA800F0F5FEB0FA12
:1038000080F46409CDE70446D3E700BF8C08FF1FAE
:10381000F0B597B0002854D0002956D0002A56D0D1
:10382000002B4AD04FF0000E04461D4602A8174652
:103830000E4608AA05A90BABCDF800E000F0CCFDC0
:10384000214602A8202200F093FE58B10024002552
:103850000BAB08AA05A902A8009500F0D1FD2046EF
:1038600017B0F0BD202231460DEB020000F080FEC3
:103870000028EBD13946202205A800F079FE002867
:10388000E4D1009008AB05AA02A90BA801F04AFCFC
:1038900004460028DAD1202221460EA804F07EF842
:1038A0000EA920220BA800F09FFE0028CFD12946A8
:1038B0000EA8FFF731FF0446C9E71C46204617B0A3
:1038C000F0BD0446204617B0F0BD0C46C7E71446CD
:1038D000C5E700BFF0B54C1E142C97B02DD80028BA
:1038E00054D0002A2DD0002B52D01C9C002C4BD041
:1038F0004FF0000E04460D4602A805A9CDF800E0E1
:103900001F4616460BAB08AA00F066FD2946204666
:103910000EAAFFF7D9FE0EA902A8202200F028FE69
:1039200088B1002400250BAB08AA05A902A80095C0
:1039300000F066FD204617B0F0BD0024204617B009
:10394000F0BD1446F6E73146202205A800F010FE2F
:103950000028E6D1202239460DEB020000F008FED7
:103960000028DED1009005AB08AA02A90BA801F03F
:10397000D9FB0028D5D120221C990BA800F034FED9
:10398000B0FA80F46409CDE71C9CD3E70446D1E784
:103990001C46CFE7F0B597B000284FD0002951D092
:1039A000002A47D000270446154602A808AA0E465A
:1039B0000BAB05A9009700F00FFD214602A82022BD
:1039C00000F0D6FD58B1002400250BAB08AA05A9CC
:1039D00002A8009500F014FD204617B0F0BD0322A8
:1039E000194905A800F0C4FD0028ECD12022314679
:1039F0000DEB020000F0BCFD0028E4D1009008AB04
:103A000005AA02A90BA801F08DFB04460028DAD113
:103A1000202221460EA803F0C1FF0EA920220BA8E8
:103A200000F0E2FD0028CFD129460EA8FFF774FE72
:103A30000446C9E71446204617B0F0BD04462046A8
:103A400017B0F0BD0C46C7E78C08FF1F002829DD22
:103A50000023F0B5A1F1040E1E4615462F68FC1A8E
:103A60002C605EF8041F8C422CBF4FF0000C4FF00E
:103A7000010C0136641A9F422CBF63460CF101030E
:103A8000B04245F8044BE9D102EB80025BB111680A
:103A90009942A1EB030342F8043B34BF0123002306
:103AA000F5D3F0BD7047F0BD2DE9F04F85B00F287C
:103AB0000190039340F38D84039BDDF804C09FB213
:103AC0001E0C01F1400E02F1400500245EF8403C5E
:103AD0004FEA134807FB08F09BB24FEA104A06FB77
:103AE00008AA06FB03F80AEB184A4FEA084807FB46
:103AF00003830004984588BF0AF1010AC3182CBF4C
:103B00004FF001084FF000081C1955F8403C4AEBF3
:103B1000080AE41845F8404C5EF83C0C55F83C3C6B
:103B20004FEA104407FB04FB80B24FEA1B4906FB37
:103B3000049906FB00F409EB14494FEA044407FB1F
:103B400000402CBF4FF001084FF000084FEA0B4B2C
:103B5000844288BF09F10109C2441BEB00082CBF55
:103B6000012400241AEB080849EB040918EB0303AD
:103B700045F83C3C5EF8383C55F8380C4FEA1348A1
:103B800007FB08FB9BB24FEA1B4A06FB08AA06FB91
:103B900003F80AEB184A4FEA084807FB03832CBFD7
:103BA000012400244FEA0B4B984588BF0AF1010A13
:103BB000A1441BEB03042CBF4FF001084FF0000899
:103BC00019EB04044AEB080A201845F8380C5EF893
:103BD000340C55F8343C4FEA104407FB04FB80B228
:103BE0004FEA1B4906FB049906FB00F409EB144954
:103BF0004FEA044407FB00402CBF4FF001084FF090
:103C000000084FEA0B4B844288BF09F10109C24406
:103C10001BEB00082CBF012400241AEB080849EB19
:103C2000040918EB030345F8343C5EF8303C55F8C2
:103C3000300C4FEA134807FB08FB9BB24FEA1B4AC4
:103C400006FB08AA06FB03F80AEB184A4FEA0848E5
:103C500007FB03832CBF012400244FEA0B4B98453C
:103C600088BF0AF1010AA1441BEB03042CBF4FF0EB
:103C700001084FF0000819EB04044AEB080A201869
:103C800045F8300C5EF82C0C55F82C3C4FEA1044EB
:103C900007FB04FB80B24FEA1B4906FB049906FBB5
:103CA00000F409EB14494FEA044407FB00402CBF21
:103CB0004FF001084FF000084FEA0B4B844288BFD9
:103CC00009F10109C2441BEB00082CBF01240024A8
:103CD0001AEB080849EB040918EB030345F82C3CE0
:103CE0005EF8283C55F8280C4FEA134807FB08FB00
:103CF0009BB24FEA1B4A06FB08AA06FB03F80AEB35
:103D0000184A4FEA084807FB03832CBF012400240C
:103D10004FEA0B4B984588BF0AF1010AA1441BEBFF
:103D200003042CBF4FF001084FF0000819EB040406
:103D30004AEB080A201845F8280C5EF8240C55F8C0
:103D4000243C4FEA104407FB04FB80B24FEA1B49B6
:103D500006FB049906FB00F409EB14494FEA0444FE
:103D600007FB00402CBF4FF001084FF000084FEA5E
:103D70000B4B844288BF09F10109C2441BEB0008C8
:103D80002CBF012400241AEB080849EB040918EBA6
:103D9000030345F8243C5EF8203C55F8200C4FEA1C
:103DA000134807FB08FB9BB24FEA1B4A06FB08AA15
:103DB00006FB03F80AEB184A4FEA084807FB03839F
:103DC0002CBF012400244FEA0B4B984588BF0AF111
:103DD000010AA1441BEB03042CBF4FF001084FF074
:103DE000000819EB04044AEB080A201845F8200CD7
:103DF0005EF81C0C55F81C3C4FEA104407FB04FB12
:103E000080B24FEA1B4906FB049906FB00F409EB5C
:103E100014494FEA044407FB00402CBF4FF001084F
:103E20004FF000084FEA0B4B844288BF09F10109AB
:103E3000C2441BEB00082CBF012400241AEB080825
:103E400049EB040918EB030345F81C3C5EF8183CE9
:103E500055F8180C4FEA134807FB08FB9BB24FEAD2
:103E60001B4A06FB08AA06FB03F80AEB184A4FEAAE
:103E7000084807FB03832CBF012400244FEA0B4BA7
:103E8000984588BF0AF1010AA1441BEB03042CBF2B
:103E90004FF001084FF0000819EB04044AEB080A40
:103EA000201845F8180C5EF8140C55F8143C4FEA2D
:103EB000104407FB04FB80B24FEA1B4906FB049940
:103EC00006FB00F409EB14494FEA044407FB0040E9
:103ED0002CBF4FF001084FF000084FEA0B4B844213
:103EE00088BF09F10109C2441BEB00082CBF012463
:103EF00000241AEB080849EB040918EB030345F802
:103F0000143C5EF8103C55F8100C4FEA134807FBC0
:103F100008FB9BB24FEA1B4A06FB08AA06FB03F804
:103F20000AEB184A4FEA084807FB03832CBF012419
:103F300000244FEA0B4B984588BF0AF1010AA144BF
:103F40001BEB03042CBF4FF001084FF0000819EBE6
:103F500004044AEB080A201845F8100C5EF80C0C13
:103F600055F80C3C4FEA104407FB04FB80B24FEAC3
:103F70001B4906FB049906FB00F409EB14494FEAC0
:103F8000044407FB00402CBF4FF001084FF000082D
:103F90004FEA0B4B844288BF09F10109C2441BEB75
:103FA00000082CBF012400241AEB080849EB04097F
:103FB00018EB030345F80C3C5EF8084C55F8080C68
:103FC0004FEA144307FB03FA1FFA84FB4FEA1A482F
:103FD00006FB038806FB0BF308EB13484FEA034389
:103FE00007FB0B3B2CBF012400244FEA0A4A5B4528
:103FF00088BF08F10108A1441AEB0B042CBF012370
:10400000002319EB040448EB0308201845F8080CBA
:104010005EF8043C55F8040C4FEA134407FB04F91E
:104020001FFA83FA4FEA194B06FB04BB06FB0AF49E
:104030000BEB144B4FEA04442CBF0123002307FB76
:104040000A4A4FEA0949544594BF5C460BF1010402
:10405000984419EB0A032CBF4FF0010B4FF0000BF3
:1040600018EB030344EB0B04ACF1100C1B182CBF32
:104070004FF0010B4FF0000BBCF10F0F45F8043C63
:104080000EF1400E5C4405F140053FF71FAD019B6A
:10409000A3F1100005096B1C9B01A0EB051001901A
:1040A00019441A44019B072B40F34F810868039D74
:1040B000936802931FFA85FE030C0EFB03F94FEA87
:1040C000154C4FEA194A80B20CFB00F80CFB03A315
:1040D00003EB184A4FEA08480EFB00804FEA0949F3
:1040E000804594BF53460AF101031768566819EBDF
:1040F00000002CBF4FF001084FF00008241843EBDC
:104100000808E41914604C684FEA14430EFB03F0EE
:10411000A4B24FEA10490CFB03990CFB04F709EB1E
:1041200017494FEA07472CBF012300230EFB0474F5
:1041300000049844A74294BF4F4609F101070019B3
:104140002CBF0123002318EB000047EB0307801965
:1041500050608C684FEA14430EFB03F0A4B24FEAA0
:1041600010480CFB03880CFB04F608EB16484FEADA
:1041700006462CBF012300230EFB046400041F44E9
:10418000A64294BF464608F1010600192CBF012340
:104190000023381846EB0306029BC0189060CC68D9
:1041A0004FEA14430EFB03F0A4B24FEA10470CFB96
:1041B00003770CFB04F507EB15474FEA05454FEA7B
:1041C00000400EFB04542CBF012300231E44A542D3
:1041D00094BF3D467D1C03192CBF01200020F3181D
:1041E00045EB0005D0681B18D3600E694FEA1643F3
:1041F0001FFA86F90EFB03F64FEA16480CFB0388FC
:104200000CFB09F308EB13484FEA03430EFB093993
:104210002CBF0120002036044B4588BF08F101085F
:10422000054416EB09062CBF01230023AE1948EB09
:1042300003081369D569F61816614C694FEA1443EF
:104240000EFB03F0A4B24FEA10470CFB03770CFB04
:1042500004F607EB16474FEA06460EFB04642CBF34
:10426000012300230004A64294BF3E467E1C434423
:1042700000192CBF012700271818536946EB0707C0
:10428000C01850618C694FEA14430EFB03F6A4B2C8
:104290004FEA16480CFB03880CFB04F308EB1348A9
:1042A0004FEA03432CBF4FF001094FF000093004DF
:1042B0000EFB04344F44A34294BF434608F101036C
:1042C00006192CBF01200020BE1943EB00039069A2
:1042D00036189661CE694FEA16470EFB07F0B6B264
:1042E0000CFB06F44FEA10480CFB078C4FEA04481D
:1042F0000EFB068E4FEA004601982CBF4FF00109D5
:104300004FF000090CEB144C4B440838F04588BFC3
:104310000CF1010C16EB0E0E2CBF012600264FEA05
:10432000D00913EB0E0E4CEB060C1EEB050509F144
:1043300001064FEA46162CBF01240024A0EBC90356
:10434000D5616444019331443244019B002B34DD38
:10435000019B4FEA8309039B01EB09081FFA83FCC9
:104360004FEA134A964651F8040BDEF80060070C3A
:104370000CFB07F580B24FEA154B0AFB00F30AFB72
:1043800007B74FEA034B2D0407EB13430CFB00B0B8
:10439000834594BF1F465F1C28182CBF01250025AC
:1043A000031947EB05079B192CBF01240024414545
:1043B0004EF8043B3C44D6D14A44136823449C4203
:1043C00042F8043B8CBF01240024F6D805B0BDE8B8
:1043D000F08F002466E600BF0FB482B002AA52F844
:1043E000043B01924BB102A9012000229A6083E8AC
:1043F000050051F8043F002BF8D102B004B070471B
:104400000FB4F0B583B008AD55F8044B0195ACB1CD
:1044100000260127A36804350021184633B16268DD
:10442000920003F0BBFAA06802F062FFA66027606A
:10443000666055F8044C0195002CEBD103B0BDE843
:10444000F04004B0704700BF2DE9F04146688E424D
:1044500002DB0020BDE8F0810D4604460121A800E2
:1044600002F0D2FE8046A0B1A76867B1B60032461E
:104470003946FCF791FC32463846002103F08EFAAB
:10448000A06802F035FF6560C4F808800020BDE830
:10449000F0810120BDE8F0818842F8B526D04B6854
:1044A000013B002B0BDD8C6854F823509A0035B982
:1044B000224402E052F8044D0CB9013BFAD15C1CD5
:1044C0000B6803600D4621460646FFF7BDFF074611
:1044D00050B97268B0689200394603F05FFAA200E2
:1044E000A968B068FCF758FC3846F8BD0027384684
:1044F000F8BD00BF70B50E4601210546FFF7A4FFC9
:10450000044688B96A68A8689200214603F046FA12
:10451000002E86EAE671AA68A1EBE671B4BF4FF0FF
:10452000FF33012311602B60204670BD4268013AC1
:10453000002A19DD806850F822109300034419B155
:1045400005E053F8041D11B9013AFAD101681F239F
:1045500002E013F1FF3303D321FA03F0C007F8D5CB
:1045600003EB421001307047836853F82210EEE7E6
:104570002DE9F041151E0746884633DD0C780B46C1
:104580001CB12FE013F8011F19B90134A542F9D16C
:104590002C462E1BF11C48BFB11D89103846FFF771
:1045A00053FF08B1BDE8F08101463846FFF7A2FF8E
:1045B0000028F7D1A542F5DDB968454404464FEA25
:1045C000A40EE30015F8012D51F82E7003F0180326
:1045D00002FA03F301343B43B44241F82E30EED1EA
:1045E000BDE8F0810024D4E7F8B514460D4607462F
:1045F000FFF79CFF0730C610B44218DB22460021AB
:10460000284603F0CBF9002E0FDD2A19002398105D
:10461000B968DC0051F8205004F01804013325FA81
:1046200004F4B34202F8014DF1D10020F8BD6FF05F
:104630000700F8BD002970B5B4BF01F11F030B4698
:104640000D4606465C11FFF771FF73682844B0EB16
:10465000431F05F01F0537DC002C1DDD7268531E5B
:104660009C420EDCB068111B00EB810100EB820361
:1046700000EB840051F8042D43F8042D8342F9D156
:10468000631E002B08DBB268002102EB8303043AAF
:1046900043F804199A42FBD1A5B171688C4211DA32
:1046A000B268C5F1200602EB840302EB810400220C
:1046B000186800FA05F10A4343F8042B9C4220FADB
:1046C00006F2F5D1002070BD10F11F0148BF00F1C6
:1046D0003E0149113046FFF7B7FE0028BCD070BD3F
:1046E0000029F0B4B4BF01F11F040C466511002D80
:1046F00001F01F011BDD47687B1B002B2EDD84684A
:10470000224602EB830604EB850454F8045B42F86E
:10471000045BB242F9D1BB4209DA8268002402EBA1
:10472000830302EB870243F8044B9A42FBD191B119
:104730004368002B0FDD8568C1F1200605EB83037C
:10474000002253F8040D20FA01F42243AB421A6010
:1047500000FA06F2F5D10020F0BC70470023DAE73A
:104760004368013B30B40DD4846854F823509A0058
:10477000002D39D1224402E052F8044DA4BB13F1BC
:10478000FF33F9D24A68013A2BD48D6855F822409C
:1047900005EB82011CB132E051F8044D34B912F13D
:1047A000FF32F9D2D843C00F30BC7047002B26DB54
:1047B0009A4228DB23DC816855F8234051F8230016
:1047C0009A00844211442A441DD307D917E051F8B6
:1047D000044D52F8040D844215D810D313F1FF3361
:1047E000F5D2002030BC70474A68013A0BD48D687E
:1047F00055F8224005EB8201002CD0D0D8E74FF0CD
:10480000FF3030BC7047012030BC70472DE9F04FBD
:1048100089B01F46149D139C07952E46129D039543
:104820000D468246934630680193A200002103F0B2
:10483000B5F82B68D7F80480326804924345A8BFC6
:1048400043460293B8F1000F08F1010305932BDDF5
:10485000049D9B000693002605EB0309DAF8083057
:10486000DBF8001053F826702C680B68029803FBE5
:104870000744039B2A4603FB04F43B46FFF714F965
:10488000019923462A46013689684046FFF70CF90C
:104890000023B04545F8047B49F8043FDED1069B70
:1048A000049A043B1A440492059B0499DAF8080020
:1048B0009A00FCF771FA019C50462146FFF750FF21
:1048C000002808DBDAF80820A168404609B0BDE8F6
:1048D000F04FFFF7BBB8079BDAF808101A6840469C
:1048E00009B0BDE8F04FFFF7B1B800BF4368013B26
:1048F000F0B40CD4846854F823509A0022441DB1BB
:104900001BE052F8044DC4B913F1FF33F9D24A68E1
:10491000013A45D48E6856F8225006EB82041DB148
:1049200039E054F8045DA5BB12F1FF32F9D2002B37
:1049300036DB07683846F0BC70474A68013AF8D45D
:104940008E6856F8225006EB8204002DECD09A4275
:10495000EFDB20DC07680A68002F01DD002A25DB79
:10496000002A01DD002F23DB816856F8230051F86F
:1049700023409A00844211443244DBD814D313F10B
:10498000FF330DD351F8045D52F8044DA542F5D91B
:10499000D0E7002BDBDA07687F423846F0BC70476F
:1049A00000273846F0BC70477F42C3E70127C1E7C4
:1049B0004FF0FF37BEE700BF9042F8B5064660D023
:1049C0008842154602D0FFF767FDA8B96C68013C24
:1049D0000CD4AA6852F82410A300134419B10EE0B5
:1049E00053F8041D59B914F1FF34F9D2611C304653
:1049F000FFF72AFD08B1F8BDF8BD0020F8BD611C25
:104A00003046FFF721FD00283DD1B168D5F808E018
:104A100007460546081F50F8042F2A440260DEF8B6
:104A20000030134403605EF804CB63452CBF0023C1
:104A300001230137AA422CBF1D465D1CBC42EADAA5
:104A400024EAE474671CBF00CA19023465B9D4E7CC
:104A500013682B44AB4204F1010407F1040713600F
:104A600034BF01250025C8D27168631E9942EFDC6E
:104A700021463046FFF7E8FC0028BCD1B2683A4432
:104A8000E6E70D46A2E7F8BDF0B50F4685B006464D
:104A9000114638461546FFF763FE002832DB01A8B1
:104AA0000021FFF799FCB54223D0B74205D0394623
:104AB0003046FFF7F1FC0446A0B96868013824D4F9
:104AC000A96851F8202083000B441AB105E053F87F
:104AD000042D12B910F1FF30F9D2B2680130FEF79F
:104AE000B5FF002401A80021FFF78AFC204605B08D
:104AF000F0BD294601A8FFF7CFFC04460028F1D1FC
:104B000001ADD2E76FF00900F1E7A968E5E700BF62
:104B1000F8B50E68136803FB06F3002B074604DBA9
:104B2000FFF74AFF00B93E60F8BD0D462846114622
:104B30001446FFF715FE002807DB224629463846B3
:104B4000FFF7A2FF0028EED0F8BD2A4621463846DE
:104B5000FFF79AFF0028E7D176423E60F8BD00BF1C
:104B6000F8B50E68136803FB06F3002B07460EDD4D
:104B70000D46284611461446FFF7F2FD00280CDBCF
:104B8000224629463846FFF77FFF20B1F8BDFFF7E0
:104B900013FF0028FAD13E60F8BD2A462146384668
:104BA000FFF772FF0028F1D176423E60F8BD00BFEA
:104BB0002DE9F04786B006460F46904603A96846A1
:104BC0000022FFF709FCBE4257D046455ED07D6803
:104BD000013D0CD4BA6852F82510AB0039B9134422
:104BE00002E053F8042D12B915F1FF35F9D2D8F8C7
:104BF0000440013C0DD4D8F8082052F82410A3003A
:104C000039B9134402E053F8042D12B914F1FF34FA
:104C1000F9D2291902313046FFF716FC824640B11D
:104C200003A869460022FFF7EBFB504606B0BDE83B
:104C3000F08701463046FFF75DFC82460028EFD141
:104C4000002C05F10105A8BF4FEA84090EDBD8F856
:104C50000830B26853F80930B9684A44013C284624
:104C6000FEF722FF631CA9F10409F0D13A68D8F8D5
:104C7000003003FB02F33360D2E731466846FFF7AA
:104C80000BFC82460028CBD16F469EE7314603A835
:104C9000FFF702FC82460028C2D10DF10C0896E70E
:104CA0002DE9F04FA3B04FF0010882468B46002457
:104CB0001CAD18461FA91E4617461C94CDF87C80D3
:104CC000CDF880802195FFF711FE002875D019AB33
:104CD00016AA13A910A801940095FFF77DFB314691
:104CE0003846FFF73DFDA04212DB394610A8FFF71A
:104CF000D3FB044620B3002610A8009519AB16AAD2
:104D000013A90196FFF77CFB204623B0BDE8F08F86
:104D1000BAF1000F06D021465046FFF7EBFB0446E0
:104D20000028E8D1BBF1000F06D039465846FFF7FE
:104D3000B3FB04460028DED1002023B0BDE8F08F8D
:104D4000314613A8FFF7A8FB04460028D3D17968A1
:104D5000CDF84C80023116A8CDF84080FFF774FBE7
:104D600004460028C7D1014616A8FFF7C3FB044636
:104D70000028C0D1022119A8FFF766FB04460028CD
:104D8000B9D103212846FFF75FFB04460028B2D1C2
:104D900013A8FFF7CBFB9F4B0340002BC0F203810E
:104DA0001F2B00F0C580C3F11F03194610A80693FE
:104DB000FFF740FC20B104469DE76FF00B00A4E72D
:104DC000069913A8FFF736FC0028F4D1119B149A1A
:104DD00004930792013B013AC2EB030808934FEAA0
:104DE0004813194613A8039205934FEA8809FFF761
:104DF00021FC08E0DDF860E05EF8093001334EF890
:104E00000930FFF7ADFE13A910A8FFF76FFD10A939
:104E1000002813AA0846EDDA059913A8FFF760FCED
:104E20000499039ACDF830B001F1804308F1FF38BE
:104E3000023B4FEA48109B00059018460B46079925
:104E40000D974FEA82095B1A6FF00302049309EB96
:104E50000203079302FB01F3089F09930A94CDF81C
:104E60002CA083460896039B9F4240F3D580159A59
:104E7000129B52F809000BF1040853F808208242F3
:104E800059D3049B03F18042013A189B4FF0FF3144
:104E900043F82210099A141D5C44ABF1040A1A5914
:104EA00001321A510FAE10E0129A52F80A1019602E
:104EB00052F80B00586052F808209A60294619A849
:104EC000FFF714FD0028189B72DD1A59013A1A5198
:104ED000002119A8FFF70EFB00287FF46CAF039A9E
:104EE0001B9B002AC8BF0799159AC8BF5058186065
:104EF00052F80910189A596013590F9319A90123F0
:104F00001FAA08461F9320932196FFF751FE002801
:104F10007FF451AF01462846FFF7ECFA00287FF4F2
:104F20004AAF012F1E9BBFDC1860129AC2D1BFE7A7
:104F3000002306934AE753F80B10060C0B0CB2FB48
:104F4000F6F41FFA80FE04FB162243EA024304FB38
:104F50000EF2934222D39B1A89B2B3FBF6F202FB04
:104F6000163341EA034102FB0EFE71450AD2431893
:104F700002F1FF3204D305E01B1802F1FF3201D227
:104F80009E45F9D8049B03F180410139189B42EA00
:104F9000044243F821207DE79A42DCD91B1804F132
:104FA000FF34F9D3D7E7013B63F01F030133F7E682
:104FB0001B590F931FAA012313A919A81F9320930C
:104FC0002196FFF7F5FD00287FF4F5AE059919A8A5
:104FD000FFF730FB00287FF4EEAE10A919AA0846AF
:104FE000FFF7BEFD00287FF4E6AE01230F901FA956
:104FF00010A81F9320932196FFF778FC00283DDB33
:10500000059B203B0593049B013B013FD346049342
:1050100029E700BF1F0000800AAC94E8100C0D9F28
:10502000089EBAF1000F09D016A95046FFF734FACE
:1050300033683A6803FB02F3CAF80030BBF1000F93
:105040003FF459AE069910A8FFF74AFB10A958463D
:10505000FFF722FA3B68CBF80030012600220FABA5
:105060001FA958460F921F9620962193FFF73EFCEA
:1050700000287FF440AECBF800603CE613A919A8E5
:10508000FFF70AFA00287FF496AE059919A8FFF7F2
:10509000D1FA00287FF48FAE10A919AA0846FFF7AD
:1050A00037FD00287FF487AE189A1359013B13513E
:1050B000A6E700BF2DE9F041154684B00A46044634
:1050C00001462B460020FFF7EBFD804600BB07465C
:1050D000012602E0FFF71CFDF0B901A92046009768
:1050E00001960296CDF80CD0FFF700FC00282A4666
:1050F00021462046EEDB02E0FFF732FD60B929468B
:105100002046FFF7F3FB00282A4621462046F3DA23
:10511000404604B0BDE8F0818046404604B0BDE89A
:10512000F08100BF2DE9F04FADF55B7D0DF15C091D
:1051300006910025012482461AA918461F460592A9
:10514000C9F80050CDF870901A941B94FFF7CEFB6D
:10515000A84204DBBB681B680993DB0705D46FF02A
:1051600003000DF55B7DBDE8F08F14A911A82A4658
:10517000FFF732F94FF4407229461AA802F00EFCEC
:105180000598FFF7D3F9B0F5287F2EDB4023049371
:10519000052308930623202407937B6803F1010865
:1051A00041465046FFF750F90DF1740B064658B3CF
:1051B00004EB44071AAB049D03EB87073846013420
:1051C0000021FFF71DF9AC4207F10C07F6DBE49B69
:1051D000002B00F0D780584614A90022FFF710F9E1
:1051E00030460DF55B7DBDE8F08FEF2816DC4F28CB
:1051F0001CDC172840F3D180082304930223089372
:10520000032304240793C8E758464146FFF71CF9D7
:10521000064698B1049B9C42CADBD8E7202304933E
:1052200004230893052310240793B6E7102304935F
:1052300003230893042308240793AEE74FEA4801A9
:1052400014A8FFF701F906460028E3D1E49B002BE0
:1052500000F0DE809B68002B00F0DA80E49B186889
:1052600059689A6811AB07C3069D39462846FFF76F
:105270003DFB0028C0F2F18029463A465846FFF728
:1052800019FF09990B4602335B0003F008030B4436
:105290000A4603FB02F2C2F1020202FB03F30A46D2
:1052A00003FB02F2C2F1020202FB03F30A4603FB14
:1052B00002F2023A02FB03F31A4609930092159B8D
:1052C000019316AA02923B4613AA12A95846FFF769
:1052D0009DFA11A95046FFF7DFF80646002899D13C
:1052E00016AA02924FF0010E159B099A009210AD7A
:1052F000019319AA3B4618A95046C9F80850C9F8A5
:1053000000E0C9F804E0CDF840E0FFF77FFA079B22
:10531000012B40F0F680002398460A930893059BE2
:10532000079D5B6806930AF104030B930AF10803D7
:105330000D940C9344460E96002C33D1069A531EBE
:10534000002A00F08F8006931F24059B069A9B6815
:1053500053F82230E34013F0010305D10A9A002AE2
:10536000EAD0012A00F02C8108F10108C8EB0502FF
:105370009340089A454542EA0302089214D002235A
:105380000A93D9E75846E49B11AA14A9FFF738F805
:1053900030460DF55B7DBDE8F08F0223089507943C
:1053A0000493FAE6013CD0E70A94CDF83CB0099C9E
:1053B0000B9EDDF830B04FF00008159B019316AA44
:1053C0000292009408F101083B465A463146504685
:1053D000FFF71CFA4545F0D1089B0A9CDDF83CB06C
:1053E00003EB430116AA1AAB03EB81010292159B52
:1053F000099A0092019301F108023B46002604310C
:1054000050460896FFF702FA0123B0460A9393E745
:10541000012111A8FFF76EF8064600287FF4FAAEC6
:10542000796811A88901FFF705F9064600287FF47D
:10543000F1AE11A93A460846FFF73CFE06460028A1
:105440007FF4E8AEE49B002B3FF40EAF11AB07CB2B
:10545000E49B186059609A6006E706995846FFF782
:105460001BF80EE7B8F1000F0D9C0E9E32DD079978
:10547000069A0A9601238B4005930AF104030793C9
:105480000AF1080326460693089C154601E0A84544
:105490001ED016AA159B0292099A00920193069AB1
:1054A00007993B465046FFF7B1F9059B640023423C
:1054B00005F10105EBD016AA159B0292099A1EA9C7
:1054C0008DE80C0050463B461FAAFFF79FF9DEE728
:1054D00034460A9E159B1D4616AB0293099B00930A
:1054E00001953B4610AD012719AA18A95046C9F8E5
:1054F0000850C9F80070C9F804701097FFF786F9D2
:1055000088E604EB440879681AAB03EB8808404648
:105510000131FEF799FF08B106467BE65946404641
:10552000FEF7BAFF0028F7D108F104030A93049D9F
:10553000069608F108030B9316AA0292099A0092A4
:10554000069A159B0193013206923B460B9A0A99E3
:105550004046FFF75BF9089B069A9342ECDC04F1A6
:105560000108A8450495BFF6D6AE08EB48031AAA71
:1055700002EB830304941C4613E02046FEF78CFFE5
:105580003B461FAA1EA9B8B916A802900998009018
:10559000159801902046FFF739F9A84504F10C044D
:1055A0001BD0796820460131FEF74EFF08F1010853
:1055B000A4F10C010028E0D0049C0495064629E6DD
:1055C00016AA159B0292099A0B998DE80C00504679
:1055D0003B460C9AFFF71AF9AEE6049C04959AE64E
:1055E0002DE9F04FA9B00C46019001F1400718AE2B
:1055F00020686168A268E36835460FC51034BC4274
:105600002E46F5D1019AD14D5368189F184613467E
:1056100092681690164619461A46DB680E934FEAB2
:10562000B00930460E9E14901269179280EA060E59
:1056300080EA090C1698096813910EEA000E179873
:105640000E9E2C46AB4629462A462B460544139807
:105650008EEA060805EBF06E149D0CEA000C8CEA4D
:10566000050C0E9D3FBA2C443D464FEAB0071998F1
:105670000795C644A44404BAAE4420461A9D149C1F
:10568000099084441B982DBA4FEABE0889EA0706A0
:10569000A34449442C4600BA0CEBFE6C87EA08058B
:1056A000029406EA0E06A6460C181C99039005EA19
:1056B0000C057D403A4409BA2C4455181D9A1E9F8A
:1056C0000B9186EA0906DE4412BAB6444FEABC06DC
:1056D0000EEBFC6E88EA06000C9213449B4A04EB26
:1056E000FE643FBA00EA0E004FEABE0E119780EA50
:1056F000080086EA0E013A441F9F4FEAB4090544A8
:10570000214005EBF46503EB08008EEA09047140C3
:105710003BBA4FEAB5081F4601442C408B4B129709
:1057200001EBF56584EA0E0489EA080C20998748A4
:10573000164426444FEAB5023B440CEA050C834F5D
:1057400006EBF56509BA219E04918CEA090C88EAFA
:10575000020A9E440CEB0E030F440AEA050A4FEAC4
:10576000B50B31BA03EBF56507EB0904229E0691F0
:105770008AEA08074FEAB50C82EA0B0327442B405C
:1057800034BA07EBF5658BEA0C0606EA0509239E99
:105790000A948646A644084436BA0596404489EAE7
:1057A0000B0683EA02087244684C3244059E4FEAB5
:1057B000B503804408EBF5658CEA030A21462746C9
:1057C00020463444249E4FEAB5090AEA050A02EB52
:1057D000F565259A36BA8AEA0C0A83EA090EA344CB
:1057E000D3440D964FEAB50A31440EEA050E16BAB7
:1057F00032460BEBF5658EEA030E89EA0A06614430
:1058000071442E4017444FEAB50B1F4401EBF56578
:1058100086EA09030299079E0F923B44049F269A49
:1058200086EA010E8EEA070E279F14BA3FBA089443
:1058300007972044039F099C814484EA07000F9F37
:105840008AEA0B0202EA05068EEA070E3F4A079F24
:10585000114694463A4486EA0A06069F9244029A02
:105860004FEAB5084FEAFE7E03EBF56374468BEA18
:10587000080578409646089F0B9A1D404E4485EADD
:105880000B054FEAB3098EEA020E78400A4606EB92
:10589000F363224488EA090655444FEAF07027462C
:1058A00005EBF3650A9C02921E4009904FEAB30291
:1058B000029B10975B448EEA040E1C46039B9A469B
:1058C0000C9B86EA080626448AEA030A099C079B81
:1058D0008EEA0303A6460C4689EA02007444029449
:1058E00000EA050E0B9C11984FEAB50B604006EBE1
:1058F000F565059C0D9E4FEAF3738AEA040A704031
:105900001C46099E029B8AEA070A98448EEA090E01
:1059100070400C9EC6444FEAFA78CDF808804FEAF2
:10592000F070B046129E039082EA0B030F9888EA4B
:10593000060A21442B40494453408AEA000A02984F
:1059400027465E184FEAB50402E000BF9979825AF3
:10595000119911970EEBF5658BEA040884444FEA20
:10596000B50E06EBF566894608EA05080499039D1D
:105970009444C54A89EA01008AEA070A089915444D
:10598000129A4FEAFA79484049469146069A2B46C0
:1059900089EA0205029A84EA0E075040079A5B449E
:1059A00077405540FA180F46B74988EA0B084FEA86
:1059B000F07303984FEAB60B7918C4440CEBF66CFD
:1059C00045400E4604988EEA0B0102EBFC6234441B
:1059D00081EA0C0180464FEAF5750A98AA4E0C95AB
:1059E00021444FEAB204109D1594069C0B9388EA5B
:1059F0000000334468402546059C04936540049CA0
:105A000012974FEABC0C78400EEB040704978BEA20
:105A10000C03099F01EBF26153400C9A7D40049FF7
:105A2000B246B1464FEAF0701644159A04461F4438
:105A30000A980B9B8CEA020286465E440D985D40F4
:105A40004A40119B32444FEAF57604968EEA0000F4
:105A50000C9E58404FEAB10B07EBF16E7040059970
:105A60000F9F159B4FEAF07005900E4602980D9916
:105A70000D9486EA0705D04683EA0B03A24402EBA5
:105A8000FE62D44483EA0E0345404FEABE0E0498FA
:105A90008BEA0E06634403EBF263814465404FEAF0
:105AA000B200159C7240059E8C4608994C44B04447
:105AB000039E8EEA000A22448CEA01014FEAF57542
:105AC0004FEAB30906958AEA030A714002EBF363D1
:105AD0003E46079F069A129C86EA07059446049E56
